{
  "_format": "hh-sol-artifact-1",
  "contractName": "zkResumeSnapshot",
  "sourceName": "contracts/zkResumeSnapshot.sol",
  "abi": [
    {
      "inputs": [],
      "stateMutability": "nonpayable",
      "type": "constructor"
    },
    {
      "inputs": [
        {
          "internalType": "address",
          "name": "sender",
          "type": "address"
        },
        {
          "internalType": "uint256",
          "name": "tokenId",
          "type": "uint256"
        },
        {
          "internalType": "address",
          "name": "owner",
          "type": "address"
        }
      ],
      "name": "ERC721IncorrectOwner",
      "type": "error"
    },
    {
      "inputs": [
        {
          "internalType": "address",
          "name": "operator",
          "type": "address"
        },
        {
          "internalType": "uint256",
          "name": "tokenId",
          "type": "uint256"
        }
      ],
      "name": "ERC721InsufficientApproval",
      "type": "error"
    },
    {
      "inputs": [
        {
          "internalType": "address",
          "name": "approver",
          "type": "address"
        }
      ],
      "name": "ERC721InvalidApprover",
      "type": "error"
    },
    {
      "inputs": [
        {
          "internalType": "address",
          "name": "operator",
          "type": "address"
        }
      ],
      "name": "ERC721InvalidOperator",
      "type": "error"
    },
    {
      "inputs": [
        {
          "internalType": "address",
          "name": "owner",
          "type": "address"
        }
      ],
      "name": "ERC721InvalidOwner",
      "type": "error"
    },
    {
      "inputs": [
        {
          "internalType": "address",
          "name": "receiver",
          "type": "address"
        }
      ],
      "name": "ERC721InvalidReceiver",
      "type": "error"
    },
    {
      "inputs": [
        {
          "internalType": "address",
          "name": "sender",
          "type": "address"
        }
      ],
      "name": "ERC721InvalidSender",
      "type": "error"
    },
    {
      "inputs": [
        {
          "internalType": "uint256",
          "name": "tokenId",
          "type": "uint256"
        }
      ],
      "name": "ERC721NonexistentToken",
      "type": "error"
    },
    {
      "inputs": [
        {
          "internalType": "address",
          "name": "owner",
          "type": "address"
        }
      ],
      "name": "OwnableInvalidOwner",
      "type": "error"
    },
    {
      "inputs": [
        {
          "internalType": "address",
          "name": "account",
          "type": "address"
        }
      ],
      "name": "OwnableUnauthorizedAccount",
      "type": "error"
    },
    {
      "anonymous": false,
      "inputs": [
        {
          "indexed": true,
          "internalType": "address",
          "name": "owner",
          "type": "address"
        },
        {
          "indexed": true,
          "internalType": "address",
          "name": "approved",
          "type": "address"
        },
        {
          "indexed": true,
          "internalType": "uint256",
          "name": "tokenId",
          "type": "uint256"
        }
      ],
      "name": "Approval",
      "type": "event"
    },
    {
      "anonymous": false,
      "inputs": [
        {
          "indexed": true,
          "internalType": "address",
          "name": "owner",
          "type": "address"
        },
        {
          "indexed": true,
          "internalType": "address",
          "name": "operator",
          "type": "address"
        },
        {
          "indexed": false,
          "internalType": "bool",
          "name": "approved",
          "type": "bool"
        }
      ],
      "name": "ApprovalForAll",
      "type": "event"
    },
    {
      "anonymous": false,
      "inputs": [
        {
          "indexed": false,
          "internalType": "uint256",
          "name": "_fromTokenId",
          "type": "uint256"
        },
        {
          "indexed": false,
          "internalType": "uint256",
          "name": "_toTokenId",
          "type": "uint256"
        }
      ],
      "name": "BatchMetadataUpdate",
      "type": "event"
    },
    {
      "anonymous": false,
      "inputs": [
        {
          "indexed": false,
          "internalType": "uint256",
          "name": "_tokenId",
          "type": "uint256"
        }
      ],
      "name": "MetadataUpdate",
      "type": "event"
    },
    {
      "anonymous": false,
      "inputs": [
        {
          "indexed": true,
          "internalType": "address",
          "name": "previousOwner",
          "type": "address"
        },
        {
          "indexed": true,
          "internalType": "address",
          "name": "newOwner",
          "type": "address"
        }
      ],
      "name": "OwnershipTransferred",
      "type": "event"
    },
    {
      "anonymous": false,
      "inputs": [
        {
          "indexed": true,
          "internalType": "address",
          "name": "from",
          "type": "address"
        },
        {
          "indexed": true,
          "internalType": "address",
          "name": "to",
          "type": "address"
        },
        {
          "indexed": true,
          "internalType": "uint256",
          "name": "tokenId",
          "type": "uint256"
        }
      ],
      "name": "Transfer",
      "type": "event"
    },
    {
      "inputs": [
        {
          "internalType": "address",
          "name": "to",
          "type": "address"
        },
        {
          "internalType": "uint256",
          "name": "tokenId",
          "type": "uint256"
        }
      ],
      "name": "approve",
      "outputs": [],
      "stateMutability": "nonpayable",
      "type": "function"
    },
    {
      "inputs": [
        {
          "internalType": "address",
          "name": "owner",
          "type": "address"
        }
      ],
      "name": "balanceOf",
      "outputs": [
        {
          "internalType": "uint256",
          "name": "",
          "type": "uint256"
        }
      ],
      "stateMutability": "view",
      "type": "function"
    },
    {
      "inputs": [
        {
          "internalType": "uint256",
          "name": "tokenId",
          "type": "uint256"
        }
      ],
      "name": "getApproved",
      "outputs": [
        {
          "internalType": "address",
          "name": "",
          "type": "address"
        }
      ],
      "stateMutability": "view",
      "type": "function"
    },
    {
      "inputs": [
        {
          "internalType": "address",
          "name": "owner",
          "type": "address"
        },
        {
          "internalType": "address",
          "name": "operator",
          "type": "address"
        }
      ],
      "name": "isApprovedForAll",
      "outputs": [
        {
          "internalType": "bool",
          "name": "",
          "type": "bool"
        }
      ],
      "stateMutability": "view",
      "type": "function"
    },
    {
      "inputs": [
        {
          "internalType": "address",
          "name": "recipient",
          "type": "address"
        },
        {
          "internalType": "bytes32",
          "name": "resumeHash",
          "type": "bytes32"
        },
        {
          "internalType": "string",
          "name": "metadataURI",
          "type": "string"
        }
      ],
      "name": "mint",
      "outputs": [
        {
          "internalType": "uint256",
          "name": "",
          "type": "uint256"
        }
      ],
      "stateMutability": "nonpayable",
      "type": "function"
    },
    {
      "inputs": [],
      "name": "name",
      "outputs": [
        {
          "internalType": "string",
          "name": "",
          "type": "string"
        }
      ],
      "stateMutability": "view",
      "type": "function"
    },
    {
      "inputs": [],
      "name": "owner",
      "outputs": [
        {
          "internalType": "address",
          "name": "",
          "type": "address"
        }
      ],
      "stateMutability": "view",
      "type": "function"
    },
    {
      "inputs": [
        {
          "internalType": "uint256",
          "name": "tokenId",
          "type": "uint256"
        }
      ],
      "name": "ownerOf",
      "outputs": [
        {
          "internalType": "address",
          "name": "",
          "type": "address"
        }
      ],
      "stateMutability": "view",
      "type": "function"
    },
    {
      "inputs": [],
      "name": "renounceOwnership",
      "outputs": [],
      "stateMutability": "nonpayable",
      "type": "function"
    },
    {
      "inputs": [
        {
          "internalType": "address",
          "name": "from",
          "type": "address"
        },
        {
          "internalType": "address",
          "name": "to",
          "type": "address"
        },
        {
          "internalType": "uint256",
          "name": "tokenId",
          "type": "uint256"
        }
      ],
      "name": "safeTransferFrom",
      "outputs": [],
      "stateMutability": "nonpayable",
      "type": "function"
    },
    {
      "inputs": [
        {
          "internalType": "address",
          "name": "from",
          "type": "address"
        },
        {
          "internalType": "address",
          "name": "to",
          "type": "address"
        },
        {
          "internalType": "uint256",
          "name": "tokenId",
          "type": "uint256"
        },
        {
          "internalType": "bytes",
          "name": "data",
          "type": "bytes"
        }
      ],
      "name": "safeTransferFrom",
      "outputs": [],
      "stateMutability": "nonpayable",
      "type": "function"
    },
    {
      "inputs": [
        {
          "internalType": "address",
          "name": "operator",
          "type": "address"
        },
        {
          "internalType": "bool",
          "name": "approved",
          "type": "bool"
        }
      ],
      "name": "setApprovalForAll",
      "outputs": [],
      "stateMutability": "nonpayable",
      "type": "function"
    },
    {
      "inputs": [
        {
          "internalType": "uint256",
          "name": "",
          "type": "uint256"
        }
      ],
      "name": "snapshots",
      "outputs": [
        {
          "internalType": "bytes32",
          "name": "resumeHash",
          "type": "bytes32"
        },
        {
          "internalType": "uint256",
          "name": "issuedAt",
          "type": "uint256"
        }
      ],
      "stateMutability": "view",
      "type": "function"
    },
    {
      "inputs": [
        {
          "internalType": "bytes4",
          "name": "interfaceId",
          "type": "bytes4"
        }
      ],
      "name": "supportsInterface",
      "outputs": [
        {
          "internalType": "bool",
          "name": "",
          "type": "bool"
        }
      ],
      "stateMutability": "view",
      "type": "function"
    },
    {
      "inputs": [],
      "name": "symbol",
      "outputs": [
        {
          "internalType": "string",
          "name": "",
          "type": "string"
        }
      ],
      "stateMutability": "view",
      "type": "function"
    },
    {
      "inputs": [
        {
          "internalType": "uint256",
          "name": "tokenId",
          "type": "uint256"
        }
      ],
      "name": "tokenURI",
      "outputs": [
        {
          "internalType": "string",
          "name": "",
          "type": "string"
        }
      ],
      "stateMutability": "view",
      "type": "function"
    },
    {
      "inputs": [
        {
          "internalType": "address",
          "name": "from",
          "type": "address"
        },
        {
          "internalType": "address",
          "name": "to",
          "type": "address"
        },
        {
          "internalType": "uint256",
          "name": "tokenId",
          "type": "uint256"
        }
      ],
      "name": "transferFrom",
      "outputs": [],
      "stateMutability": "nonpayable",
      "type": "function"
    },
    {
      "inputs": [
        {
          "internalType": "address",
          "name": "newOwner",
          "type": "address"
        }
      ],
      "name": "transferOwnership",
      "outputs": [],
      "stateMutability": "nonpayable",
      "type": "function"
    }
  ],
  "bytecode": "0x60806040523480156200001157600080fd5b50336040518060400160405280601081526020017f7a6b526573756d65536e617073686f74000000000000000000000000000000008152506040518060400160405280600381526020017f5a52530000000000000000000000000000000000000000000000000000000000815250816000908162000090919062000472565b508060019081620000a2919062000472565b505050600073ffffffffffffffffffffffffffffffffffffffff168173ffffffffffffffffffffffffffffffffffffffff16036200011a5760006040517f1e4fbdf70000000000000000000000000000000000000000000000000000000081526004016200011191906200059e565b60405180910390fd5b6200012b816200013260201b60201c565b50620005bb565b6000600760009054906101000a900473ffffffffffffffffffffffffffffffffffffffff16905081600760006101000a81548173ffffffffffffffffffffffffffffffffffffffff021916908373ffffffffffffffffffffffffffffffffffffffff1602179055508173ffffffffffffffffffffffffffffffffffffffff168173ffffffffffffffffffffffffffffffffffffffff167f8be0079c531659141344cd1fd0a4f28419497f9722a3daafe3b4186f6b6457e060405160405180910390a35050565b600081519050919050565b7f4e487b7100000000000000000000000000000000000000000000000000000000600052604160045260246000fd5b7f4e487b7100000000000000000000000000000000000000000000000000000000600052602260045260246000fd5b600060028204905060018216806200027a57607f821691505b60208210810362000290576200028f62000232565b5b50919050565b60008190508160005260206000209050919050565b60006020601f8301049050919050565b600082821b905092915050565b600060088302620002fa7fffffffffffffffffffffffffffffffffffffffffffffffffffffffffffffffff82620002bb565b620003068683620002bb565b95508019841693508086168417925050509392505050565b6000819050919050565b6000819050919050565b6000620003536200034d62000347846200031e565b62000328565b6200031e565b9050919050565b6000819050919050565b6200036f8362000332565b620003876200037e826200035a565b848454620002c8565b825550505050565b600090565b6200039e6200038f565b620003ab81848462000364565b505050565b5b81811015620003d357620003c760008262000394565b600181019050620003b1565b5050565b601f8211156200042257620003ec8162000296565b620003f784620002ab565b8101602085101562000407578190505b6200041f6200041685620002ab565b830182620003b0565b50505b505050565b600082821c905092915050565b6000620004476000198460080262000427565b1980831691505092915050565b600062000462838362000434565b9150826002028217905092915050565b6200047d82620001f8565b67ffffffffffffffff81111562000499576200049862000203565b5b620004a5825462000261565b620004b2828285620003d7565b600060209050601f831160018114620004ea5760008415620004d5578287015190505b620004e1858262000454565b86555062000551565b601f198416620004fa8662000296565b60005b828110156200052457848901518255600182019150602085019450602081019050620004fd565b8683101562000544578489015162000540601f89168262000434565b8355505b6001600288020188555050505b505050505050565b600073ffffffffffffffffffffffffffffffffffffffff82169050919050565b6000620005868262000559565b9050919050565b620005988162000579565b82525050565b6000602082019050620005b560008301846200058d565b92915050565b61275a80620005cb6000396000f3fe608060405234801561001057600080fd5b50600436106101165760003560e01c8063715018a6116100a2578063b88d4fde11610071578063b88d4fde146102df578063c87b56dd146102fb578063d6565a2d1461032b578063e985e9c51461035c578063f2fde38b1461038c57610116565b8063715018a61461027d5780638da5cb5b1461028757806395d89b41146102a5578063a22cb465146102c357610116565b806323b872dd116100e957806323b872dd146101b557806342842e0e146101d1578063517e7514146101ed5780636352211e1461021d57806370a082311461024d57610116565b806301ffc9a71461011b57806306fdde031461014b578063081812fc14610169578063095ea7b314610199575b600080fd5b61013560048036038101906101309190611b31565b6103a8565b6040516101429190611b79565b60405180910390f35b610153610409565b6040516101609190611c24565b60405180910390f35b610183600480360381019061017e9190611c7c565b61049b565b6040516101909190611cea565b60405180910390f35b6101b360048036038101906101ae9190611d31565b6104b7565b005b6101cf60048036038101906101ca9190611d71565b6104cd565b005b6101eb60048036038101906101e69190611d71565b6105cf565b005b61020760048036038101906102029190611f2f565b6105ef565b6040516102149190611fad565b60405180910390f35b61023760048036038101906102329190611c7c565b61066e565b6040516102449190611cea565b60405180910390f35b61026760048036038101906102629190611fc8565b610680565b6040516102749190611fad565b60405180910390f35b61028561073a565b005b61028f61074e565b60405161029c9190611cea565b60405180910390f35b6102ad610778565b6040516102ba9190611c24565b60405180910390f35b6102dd60048036038101906102d89190612021565b61080a565b005b6102f960048036038101906102f49190612102565b610820565b005b61031560048036038101906103109190611c7c565b610845565b6040516103229190611c24565b60405180910390f35b61034560048036038101906103409190611c7c565b610958565b604051610353929190612194565b60405180910390f35b610376600480360381019061037191906121bd565b61097c565b6040516103839190611b79565b60405180910390f35b6103a660048036038101906103a19190611fc8565b610a10565b005b6000634906490660e01b7bffffffffffffffffffffffffffffffffffffffffffffffffffffffff1916827bffffffffffffffffffffffffffffffffffffffffffffffffffffffff19161480610402575061040182610a96565b5b9050919050565b6060600080546104189061222c565b80601f01602080910402602001604051908101604052809291908181526020018280546104449061222c565b80156104915780601f1061046657610100808354040283529160200191610491565b820191906000526020600020905b81548152906001019060200180831161047457829003601f168201915b5050505050905090565b60006104a682610b78565b506104b082610c00565b9050919050565b6104c982826104c4610c3d565b610c45565b5050565b600073ffffffffffffffffffffffffffffffffffffffff168273ffffffffffffffffffffffffffffffffffffffff160361053f5760006040517f64a0ae920000000000000000000000000000000000000000000000000000000081526004016105369190611cea565b60405180910390fd5b6000610553838361054e610c3d565b610c57565b90508373ffffffffffffffffffffffffffffffffffffffff168173ffffffffffffffffffffffffffffffffffffffff16146105c9578382826040517f64283d7b0000000000000000000000000000000000000000000000000000000081526004016105c09392919061225d565b60405180910390fd5b50505050565b6105ea83838360405180602001604052806000815250610820565b505050565b600060086000815480929190610604906122c3565b91905055506000600854905061061a8582610e71565b6106248184610f6a565b604051806040016040528085815260200142815250600960008381526020019081526020016000206000820151816000015560208201518160010155905050809150509392505050565b600061067982610b78565b9050919050565b60008073ffffffffffffffffffffffffffffffffffffffff168273ffffffffffffffffffffffffffffffffffffffff16036106f35760006040517f89c62b640000000000000000000000000000000000000000000000000000000081526004016106ea9190611cea565b60405180910390fd5b600360008373ffffffffffffffffffffffffffffffffffffffff1673ffffffffffffffffffffffffffffffffffffffff168152602001908152602001600020549050919050565b610742610fc6565b61074c600061104d565b565b6000600760009054906101000a900473ffffffffffffffffffffffffffffffffffffffff16905090565b6060600180546107879061222c565b80601f01602080910402602001604051908101604052809291908181526020018280546107b39061222c565b80156108005780601f106107d557610100808354040283529160200191610800565b820191906000526020600020905b8154815290600101906020018083116107e357829003601f168201915b5050505050905090565b61081c610815610c3d565b8383611113565b5050565b61082b8484846104cd565b61083f610836610c3d565b85858585611282565b50505050565b606061085082610b78565b5060006006600084815260200190815260200160002080546108719061222c565b80601f016020809104026020016040519081016040528092919081815260200182805461089d9061222c565b80156108ea5780601f106108bf576101008083540402835291602001916108ea565b820191906000526020600020905b8154815290600101906020018083116108cd57829003601f168201915b5050505050905060006108fb611433565b90506000815103610910578192505050610953565b60008251111561094557808260405160200161092d929190612347565b60405160208183030381529060405292505050610953565b61094e8461144a565b925050505b919050565b60096020528060005260406000206000915090508060000154908060010154905082565b6000600560008473ffffffffffffffffffffffffffffffffffffffff1673ffffffffffffffffffffffffffffffffffffffff16815260200190815260200160002060008373ffffffffffffffffffffffffffffffffffffffff1673ffffffffffffffffffffffffffffffffffffffff16815260200190815260200160002060009054906101000a900460ff16905092915050565b610a18610fc6565b600073ffffffffffffffffffffffffffffffffffffffff168173ffffffffffffffffffffffffffffffffffffffff1603610a8a5760006040517f1e4fbdf7000000000000000000000000000000000000000000000000000000008152600401610a819190611cea565b60405180910390fd5b610a938161104d565b50565b60007f80ac58cd000000000000000000000000000000000000000000000000000000007bffffffffffffffffffffffffffffffffffffffffffffffffffffffff1916827bffffffffffffffffffffffffffffffffffffffffffffffffffffffff19161480610b6157507f5b5e139f000000000000000000000000000000000000000000000000000000007bffffffffffffffffffffffffffffffffffffffffffffffffffffffff1916827bffffffffffffffffffffffffffffffffffffffffffffffffffffffff1916145b80610b715750610b70826114b3565b5b9050919050565b600080610b848361151d565b9050600073ffffffffffffffffffffffffffffffffffffffff168173ffffffffffffffffffffffffffffffffffffffff1603610bf757826040517f7e273289000000000000000000000000000000000000000000000000000000008152600401610bee9190611fad565b60405180910390fd5b80915050919050565b60006004600083815260200190815260200160002060009054906101000a900473ffffffffffffffffffffffffffffffffffffffff169050919050565b600033905090565b610c52838383600161155a565b505050565b600080610c638461151d565b9050600073ffffffffffffffffffffffffffffffffffffffff168373ffffffffffffffffffffffffffffffffffffffff1614610ca557610ca481848661171f565b5b600073ffffffffffffffffffffffffffffffffffffffff168173ffffffffffffffffffffffffffffffffffffffff1614610d3657610ce760008560008061155a565b6001600360008373ffffffffffffffffffffffffffffffffffffffff1673ffffffffffffffffffffffffffffffffffffffff168152602001908152602001600020600082825403925050819055505b600073ffffffffffffffffffffffffffffffffffffffff168573ffffffffffffffffffffffffffffffffffffffff1614610db9576001600360008773ffffffffffffffffffffffffffffffffffffffff1673ffffffffffffffffffffffffffffffffffffffff168152602001908152602001600020600082825401925050819055505b846002600086815260200190815260200160002060006101000a81548173ffffffffffffffffffffffffffffffffffffffff021916908373ffffffffffffffffffffffffffffffffffffffff160217905550838573ffffffffffffffffffffffffffffffffffffffff168273ffffffffffffffffffffffffffffffffffffffff167fddf252ad1be2c89b69c2b068fc378daa952ba7f163c4a11628f55a4df523b3ef60405160405180910390a4809150509392505050565b600073ffffffffffffffffffffffffffffffffffffffff168273ffffffffffffffffffffffffffffffffffffffff1603610ee35760006040517f64a0ae92000000000000000000000000000000000000000000000000000000008152600401610eda9190611cea565b60405180910390fd5b6000610ef183836000610c57565b9050600073ffffffffffffffffffffffffffffffffffffffff168173ffffffffffffffffffffffffffffffffffffffff1614610f655760006040517f73c6ac6e000000000000000000000000000000000000000000000000000000008152600401610f5c9190611cea565b60405180910390fd5b505050565b80600660008481526020019081526020016000209081610f8a9190612517565b507ff8e1a15aba9398e019f0b49df1a4fde98ee17ae345cb5f6b5e2c27f5033e8ce782604051610fba9190611fad565b60405180910390a15050565b610fce610c3d565b73ffffffffffffffffffffffffffffffffffffffff16610fec61074e565b73ffffffffffffffffffffffffffffffffffffffff161461104b5761100f610c3d565b6040517f118cdaa70000000000000000000000000000000000000000000000000000000081526004016110429190611cea565b60405180910390fd5b565b6000600760009054906101000a900473ffffffffffffffffffffffffffffffffffffffff16905081600760006101000a81548173ffffffffffffffffffffffffffffffffffffffff021916908373ffffffffffffffffffffffffffffffffffffffff1602179055508173ffffffffffffffffffffffffffffffffffffffff168173ffffffffffffffffffffffffffffffffffffffff167f8be0079c531659141344cd1fd0a4f28419497f9722a3daafe3b4186f6b6457e060405160405180910390a35050565b600073ffffffffffffffffffffffffffffffffffffffff168273ffffffffffffffffffffffffffffffffffffffff160361118457816040517f5b08ba1800000000000000000000000000000000000000000000000000000000815260040161117b9190611cea565b60405180910390fd5b80600560008573ffffffffffffffffffffffffffffffffffffffff1673ffffffffffffffffffffffffffffffffffffffff16815260200190815260200160002060008473ffffffffffffffffffffffffffffffffffffffff1673ffffffffffffffffffffffffffffffffffffffff16815260200190815260200160002060006101000a81548160ff0219169083151502179055508173ffffffffffffffffffffffffffffffffffffffff168373ffffffffffffffffffffffffffffffffffffffff167f17307eab39ab6107e8899845ad3d59bd9653f200f220920489ca2b5937696c31836040516112759190611b79565b60405180910390a3505050565b60008373ffffffffffffffffffffffffffffffffffffffff163b111561142c578273ffffffffffffffffffffffffffffffffffffffff1663150b7a02868685856040518563ffffffff1660e01b81526004016112e1949392919061263e565b6020604051808303816000875af192505050801561131d57506040513d601f19601f8201168201806040525081019061131a919061269f565b60015b6113a1573d806000811461134d576040519150601f19603f3d011682016040523d82523d6000602084013e611352565b606091505b50600081510361139957836040517f64a0ae920000000000000000000000000000000000000000000000000000000081526004016113909190611cea565b60405180910390fd5b805181602001fd5b63150b7a0260e01b7bffffffffffffffffffffffffffffffffffffffffffffffffffffffff1916817bffffffffffffffffffffffffffffffffffffffffffffffffffffffff19161461142a57836040517f64a0ae920000000000000000000000000000000000000000000000000000000081526004016114219190611cea565b60405180910390fd5b505b5050505050565b606060405180602001604052806000815250905090565b606061145582610b78565b506000611460611433565b9050600081511161148057604051806020016040528060008152506114ab565b8061148a846117e3565b60405160200161149b929190612347565b6040516020818303038152906040525b915050919050565b60007f01ffc9a7000000000000000000000000000000000000000000000000000000007bffffffffffffffffffffffffffffffffffffffffffffffffffffffff1916827bffffffffffffffffffffffffffffffffffffffffffffffffffffffff1916149050919050565b60006002600083815260200190815260200160002060009054906101000a900473ffffffffffffffffffffffffffffffffffffffff169050919050565b80806115935750600073ffffffffffffffffffffffffffffffffffffffff168273ffffffffffffffffffffffffffffffffffffffff1614155b156116c75760006115a384610b78565b9050600073ffffffffffffffffffffffffffffffffffffffff168373ffffffffffffffffffffffffffffffffffffffff161415801561160e57508273ffffffffffffffffffffffffffffffffffffffff168173ffffffffffffffffffffffffffffffffffffffff1614155b8015611621575061161f818461097c565b155b1561166357826040517fa9fbf51f00000000000000000000000000000000000000000000000000000000815260040161165a9190611cea565b60405180910390fd5b81156116c557838573ffffffffffffffffffffffffffffffffffffffff168273ffffffffffffffffffffffffffffffffffffffff167f8c5be1e5ebec7d5bd14f71427d1e84f3dd0314c0f7b2291e5b200ac8c7c3b92560405160405180910390a45b505b836004600085815260200190815260200160002060006101000a81548173ffffffffffffffffffffffffffffffffffffffff021916908373ffffffffffffffffffffffffffffffffffffffff16021790555050505050565b61172a8383836118b1565b6117de57600073ffffffffffffffffffffffffffffffffffffffff168373ffffffffffffffffffffffffffffffffffffffff160361179f57806040517f7e2732890000000000000000000000000000000000000000000000000000000081526004016117969190611fad565b60405180910390fd5b81816040517f177e802f0000000000000000000000000000000000000000000000000000000081526004016117d59291906126cc565b60405180910390fd5b505050565b6060600060016117f284611972565b01905060008167ffffffffffffffff81111561181157611810611e04565b5b6040519080825280601f01601f1916602001820160405280156118435781602001600182028036833780820191505090505b509050600082602001820190505b6001156118a6578080600190039150507f3031323334353637383961626364656600000000000000000000000000000000600a86061a8153600a858161189a576118996126f5565b5b04945060008503611851575b819350505050919050565b60008073ffffffffffffffffffffffffffffffffffffffff168373ffffffffffffffffffffffffffffffffffffffff161415801561196957508273ffffffffffffffffffffffffffffffffffffffff168473ffffffffffffffffffffffffffffffffffffffff16148061192a5750611929848461097c565b5b8061196857508273ffffffffffffffffffffffffffffffffffffffff1661195083610c00565b73ffffffffffffffffffffffffffffffffffffffff16145b5b90509392505050565b600080600090507a184f03e93ff9f4daa797ed6e38ed64bf6a1f01000000000000000083106119d0577a184f03e93ff9f4daa797ed6e38ed64bf6a1f01000000000000000083816119c6576119c56126f5565b5b0492506040810190505b6d04ee2d6d415b85acef81000000008310611a0d576d04ee2d6d415b85acef81000000008381611a0357611a026126f5565b5b0492506020810190505b662386f26fc100008310611a3c57662386f26fc100008381611a3257611a316126f5565b5b0492506010810190505b6305f5e1008310611a65576305f5e1008381611a5b57611a5a6126f5565b5b0492506008810190505b6127108310611a8a576127108381611a8057611a7f6126f5565b5b0492506004810190505b60648310611aad5760648381611aa357611aa26126f5565b5b0492506002810190505b600a8310611abc576001810190505b80915050919050565b6000604051905090565b600080fd5b600080fd5b60007fffffffff0000000000000000000000000000000000000000000000000000000082169050919050565b611b0e81611ad9565b8114611b1957600080fd5b50565b600081359050611b2b81611b05565b92915050565b600060208284031215611b4757611b46611acf565b5b6000611b5584828501611b1c565b91505092915050565b60008115159050919050565b611b7381611b5e565b82525050565b6000602082019050611b8e6000830184611b6a565b92915050565b600081519050919050565b600082825260208201905092915050565b60005b83811015611bce578082015181840152602081019050611bb3565b60008484015250505050565b6000601f19601f8301169050919050565b6000611bf682611b94565b611c008185611b9f565b9350611c10818560208601611bb0565b611c1981611bda565b840191505092915050565b60006020820190508181036000830152611c3e8184611beb565b905092915050565b6000819050919050565b611c5981611c46565b8114611c6457600080fd5b50565b600081359050611c7681611c50565b92915050565b600060208284031215611c9257611c91611acf565b5b6000611ca084828501611c67565b91505092915050565b600073ffffffffffffffffffffffffffffffffffffffff82169050919050565b6000611cd482611ca9565b9050919050565b611ce481611cc9565b82525050565b6000602082019050611cff6000830184611cdb565b92915050565b611d0e81611cc9565b8114611d1957600080fd5b50565b600081359050611d2b81611d05565b92915050565b60008060408385031215611d4857611d47611acf565b5b6000611d5685828601611d1c565b9250506020611d6785828601611c67565b9150509250929050565b600080600060608486031215611d8a57611d89611acf565b5b6000611d9886828701611d1c565b9350506020611da986828701611d1c565b9250506040611dba86828701611c67565b9150509250925092565b6000819050919050565b611dd781611dc4565b8114611de257600080fd5b50565b600081359050611df481611dce565b92915050565b600080fd5b600080fd5b7f4e487b7100000000000000000000000000000000000000000000000000000000600052604160045260246000fd5b611e3c82611bda565b810181811067ffffffffffffffff82111715611e5b57611e5a611e04565b5b80604052505050565b6000611e6e611ac5565b9050611e7a8282611e33565b919050565b600067ffffffffffffffff821115611e9a57611e99611e04565b5b611ea382611bda565b9050602081019050919050565b82818337600083830152505050565b6000611ed2611ecd84611e7f565b611e64565b905082815260208101848484011115611eee57611eed611dff565b5b611ef9848285611eb0565b509392505050565b600082601f830112611f1657611f15611dfa565b5b8135611f26848260208601611ebf565b91505092915050565b600080600060608486031215611f4857611f47611acf565b5b6000611f5686828701611d1c565b9350506020611f6786828701611de5565b925050604084013567ffffffffffffffff811115611f8857611f87611ad4565b5b611f9486828701611f01565b9150509250925092565b611fa781611c46565b82525050565b6000602082019050611fc26000830184611f9e565b92915050565b600060208284031215611fde57611fdd611acf565b5b6000611fec84828501611d1c565b91505092915050565b611ffe81611b5e565b811461200957600080fd5b50565b60008135905061201b81611ff5565b92915050565b6000806040838503121561203857612037611acf565b5b600061204685828601611d1c565b92505060206120578582860161200c565b9150509250929050565b600067ffffffffffffffff82111561207c5761207b611e04565b5b61208582611bda565b9050602081019050919050565b60006120a56120a084612061565b611e64565b9050828152602081018484840111156120c1576120c0611dff565b5b6120cc848285611eb0565b509392505050565b600082601f8301126120e9576120e8611dfa565b5b81356120f9848260208601612092565b91505092915050565b6000806000806080858703121561211c5761211b611acf565b5b600061212a87828801611d1c565b945050602061213b87828801611d1c565b935050604061214c87828801611c67565b925050606085013567ffffffffffffffff81111561216d5761216c611ad4565b5b612179878288016120d4565b91505092959194509250565b61218e81611dc4565b82525050565b60006040820190506121a96000830185612185565b6121b66020830184611f9e565b9392505050565b600080604083850312156121d4576121d3611acf565b5b60006121e285828601611d1c565b92505060206121f385828601611d1c565b9150509250929050565b7f4e487b7100000000000000000000000000000000000000000000000000000000600052602260045260246000fd5b6000600282049050600182168061224457607f821691505b602082108103612257576122566121fd565b5b50919050565b60006060820190506122726000830186611cdb565b61227f6020830185611f9e565b61228c6040830184611cdb565b949350505050565b7f4e487b7100000000000000000000000000000000000000000000000000000000600052601160045260246000fd5b60006122ce82611c46565b91507fffffffffffffffffffffffffffffffffffffffffffffffffffffffffffffffff8203612300576122ff612294565b5b600182019050919050565b600081905092915050565b600061232182611b94565b61232b818561230b565b935061233b818560208601611bb0565b80840191505092915050565b60006123538285612316565b915061235f8284612316565b91508190509392505050565b60008190508160005260206000209050919050565b60006020601f8301049050919050565b600082821b905092915050565b6000600883026123cd7fffffffffffffffffffffffffffffffffffffffffffffffffffffffffffffffff82612390565b6123d78683612390565b95508019841693508086168417925050509392505050565b6000819050919050565b600061241461240f61240a84611c46565b6123ef565b611c46565b9050919050565b6000819050919050565b61242e836123f9565b61244261243a8261241b565b84845461239d565b825550505050565b600090565b61245761244a565b612462818484612425565b505050565b5b818110156124865761247b60008261244f565b600181019050612468565b5050565b601f8211156124cb5761249c8161236b565b6124a584612380565b810160208510156124b4578190505b6124c86124c085612380565b830182612467565b50505b505050565b600082821c905092915050565b60006124ee600019846008026124d0565b1980831691505092915050565b600061250783836124dd565b9150826002028217905092915050565b61252082611b94565b67ffffffffffffffff81111561253957612538611e04565b5b612543825461222c565b61254e82828561248a565b600060209050601f831160018114612581576000841561256f578287015190505b61257985826124fb565b8655506125e1565b601f19841661258f8661236b565b60005b828110156125b757848901518255600182019150602085019450602081019050612592565b868310156125d457848901516125d0601f8916826124dd565b8355505b6001600288020188555050505b505050505050565b600081519050919050565b600082825260208201905092915050565b6000612610826125e9565b61261a81856125f4565b935061262a818560208601611bb0565b61263381611bda565b840191505092915050565b60006080820190506126536000830187611cdb565b6126606020830186611cdb565b61266d6040830185611f9e565b818103606083015261267f8184612605565b905095945050505050565b60008151905061269981611b05565b92915050565b6000602082840312156126b5576126b4611acf565b5b60006126c38482850161268a565b91505092915050565b60006040820190506126e16000830185611cdb565b6126ee6020830184611f9e565b9392505050565b7f4e487b7100000000000000000000000000000000000000000000000000000000600052601260045260246000fdfea2646970667358221220a91a57838b7fe68180875d4338c9370c2f4e459f7eaa5f8c73c6e4bd38c6c7ca64736f6c63430008140033",
  "linkReferences": {},
  "deployedLinkReferences": {}
}